:03000000020AA64B
:0C0AA600787FE4F6D8FD758120020AED8F
:100B320048000400040401060505004800590000AD
:100B42000000000000004C00453F065B4F666D7DD3
:100B5200077F6F00406038000C00000000000000BA
:100B6200000018187E7E1818000018181818181897
:100B72000000422418182442000018185A5A181863
:100B82000000242424242424007EC38181818181C5
:100B9200814800517FBFDFEFF7FBFDFE44000000FC
:100BA20000000044006100000000410065004100B7
:060BB2004400C100C10176
:040D01007F017E00F0
:0B0D0500EF1FAC0670011E4C70F622C0
:100A1500900067ECF0A3EDF0EFB40800504D900A9C
:100A25002AF8282873020A42020A46020A4A020ADA
:100A35004E020A52020A5A020A62020A6AD2A480C5
:100A45000ED2A48012D2A48016D2A4801AC2A4D237
:100A5500A3D2A28016C2A4D2A3C2A2800EC2A4C2EF
:100A6500A3D2A28006C2A4C2A3C2A2EB4A90006789
:100A75006014E0FEA3E02445F58274003EF583E0B2
:100A85004480F5808010E0FEA3E02445F5827400E3
:100A95003EF583E0F5807F327E00120D05E4F5809A
:010AA500222E
:100C8C00900068E4F0A374C8F0AC06AD077E1A7F40
:100C9C000A120772AA06AB0790006874FFF5F012EF
:100CAC0007FD45F0600BB2A5AF03AE02120D058037
:010CBC00E750
:010CBD002214
:040CE8007F147E00F7
:100CEC00EF1FAC0670011E4C600A7D027CEFDCFE2F
:040CFC00DDFC80ECAF
:010D000022D0
:10094300E4FB7590FFC29320970B7F14FE120CEC0F
:100953003097FD7B0120960A120CE82096047B0554
:1009630080F920950A120CE82095047B0980F92070
:10097300940A120CE82094047B0D80F97590FFC251
:1009830092209708120CE83097FD7B0220960812FC
:100993000CE83096FD7B06209508120CE83095FD97
:1009A3007B0A209408120CE83094FD7B0E7590FFAF
:1009B300C291209708120CE83097FD7B032096081C
:1009C300120CE83096FD7B07209508120CE8309551
:1009D300FD7B0B209408120CE83094FD7B0F75907F
:1009E300FFC290209708120CE83097FD7B042096F5
:1009F30008120CE83096FD7B08209508120CE830AD
:100A030095FD7B0C209408120CE83094FD7B10AF0D
:010A130003DF
:010A140022BF
:020CBE00AD0780
:100CC000E4FBEDC4131313540124FF92B4ED25E0AB
:100CD000FDC2B6120D01D2B6120D010BEBB408E243
:070CE000D2B5120D01C2B5EF
:010CE70022EA
:050BB900900067EFF061
:100BBE00E4A3F0A3F0F0E4900068F0900068E0FD8C
:100BCE002451F582E43400F583E0F580900067E06F
:100BDE00FF3395E0FEEF7803C333CE33CED8F9243E
:100BEE000CF58274003EF583E5822DF582E43583A3
:100BFE00F583E0FF120CBE7F647E00120D05E4FF4C
:100C0E00120CBE900068E004F0E0C3940840AC9073
:0B0C1E000069E004F0E0C3941E409B5E
:010C290022A8
:10000300E4900067F0900044E06410703B200038F7
:10001300900067F0900067E0FFC3648094885026E7
:10002300EF3395E0FE74042FF58274003EF583747C
:100033000AF074592FF58274003EF583E4F09000C2
:1000430067E004F080CED200200003020452900047
:1000530044E014B41000400302045290006C75F0A5
:1000630003A4C58325F0C5837302009C0200C0026C
:1000730000E802011102013502015E02018702015B
:10008300B00201D8020201020223020253020283D8
:100093000202B30202E3020408E4FFFE7D207C4176
:1000A300900000E0F8A3E0F9A3E0FAA3E0FB120557
:1000B3004B783F12085E7FFA7E0002044FE4FFFE96
:1000C3007D207C41900000E0F8A3E0F9A3E0FAA3CF
:1000D300E0FB12054BE4FBFAF978401208637F2C2E
:1000E3007E0102044FE4FFFE7D207C41900000E08E
:1000F300F8A3E0F9A3E0FAA3E0FB12054BE4FBFA53
:10010300794078401208637F4A7E0102044FE4FF7E
:10011300FE7D207C41900000E0F8A3E0F9A3E0FA23
:10012300A3E0FB12054B784012085E7F687E010254
:10013300044FE4FFFE7D207C41900000E0F8A3E043
:10014300F9A3E0FAA3E0FB12054BE4FBFA79A078EC
:10015300401208637F867E0102044FE4FFFE7D2088
:100163007C41900000E0F8A3E0F9A3E0FAA3E0FBF0
:1001730012054BE4FBFA79C078401208637FA47E32
:100183000102044FE4FFFE7D207C41900000E0F873
:10019300A3E0F9A3E0FAA3E0FB12054BE4FBFA7931
:1001A300E078401208637FC27E0102044FE4FFFE41
:1001B3007D207C41900000E0F8A3E0F9A3E0FAA3DE
:1001C300E0FB12054BE4FBFAF978411208637F0860
:1001D3007E0202044FE4FFFE7D207C41900000E09C
:1001E300F8A3E0F9A3E0FAA3E0FB12054BE4FBFA62
:1001F300791078411208637F2B7E0202044F90002E
:1002030000E0FCA3E0FDA3E0FEA3E0FFE4FBFA793A
:1002130020784112054B1208667F9A7E0202044F32
:10022300200120900000E0FCA3E0FDA3E0FEA3E09A
:10023300FF90006112082190000012082D000000B9
:1002430000D201900065742BF07FBC7E0202044F44
:10025300200120900000E0FCA3E0FDA3E0FEA3E06A
:10026300FF90006112082190000012082D00000089
:1002730000D201900065742DF07F0C7E0302044FC1
:10028300200120900000E0FCA3E0FDA3E0FEA3E03A
:10029300FF90006112082190000012082D00000059
:1002A30000D201900065742AF07F707E0302044F30
:1002B300200120900000E0FCA3E0FDA3E0FEA3E00A
:1002C300FF90006112082190000012082D00000029
:1002D30000D201900065742FF07FE87E0302044F83
:1002E3002001030203F1C201900065E024D66051AE
:1002F30024FD602C24FE606D240460030203D1906E
:100303000000E0FCA3E0FDA3E0FEA3E0FF9000619A
:10031300E0F8A3E0F9A3E0FAA3E0FB12045A80405B
:10032300900000E0F8A3E0F9A3E0FAA3E0FB90005B
:1003330061E0FCA3E0FDA3E0FEA3E0FF120456800E
:100343001F900000E0FCA3E0FDA3E0FEA3E0FF900C
:100353000061E0F8A3E0F9A3E0FAA3E0FB12054B88
:100363001208668069900000E0F8A3E0F9A3E0FAC0
:10037300A3E0FB900061E0FCA3E0FDA3E0FEA3E0AB
:10038300FF120654900000120821E4FFFE7D207C3A
:1003930041900000E0F8A3E0F9A3E0FAA3E0FB1228
:1003A300054B1206F112087D900000E0FCA3E0FD6E
:1003B300A3E0FEA3E0FF1206F17C007D0A1207C74B
:1003C300ED4C700490000AF090005F7401F090000F
:1003D30000E0FCA3E0FDA3E0FEA3E0FF90006112B8
:1003E300082190000012082D0000000080119000E9
:1003F30061E0FCA3E0FDA3E0FEA3E0FF1208667F3B
:100403004C7E048047E4900067F0900067E0FFC3F0
:10041300648094885032EF3395E0FE74042FF582A4
:1004230074003EF583740AF074592FF58274003E0C
:10043300F583E4F090000012082D00000000C201D3
:0F044300900067E004F080C27FB07E04120C8C42
:010452002287
:10085E00E4FBFA798012045A9000001208219000ED
:0F086E0000E0FCA3E0FDA3E0FEA3E0FF1206F113
:08087D00900068EEF0A3EFF01B
:10088500E4FAC3EE64809480500302091290006874
:10089500E0FEA3E0FF7C007D0A1207C790000BED88
:1008A500F07B06900068E0FEA3E0FF7C007D0A1265
:1008B50007C7900068EEF0A3EFF04E7023AA03C3BC
:1008C500EA648094804016EAFF3395E0FE74042FB5
:1008D500F58274003EF583740AF01A80E2AF0322B4
:1008E500900068E0FEA3E0FF7C007D0A1207C7AF19
:1008F50005EBFD3395E0FC74042DF58274003CF5A1
:1009050083EFF01BC3EB64809480509722E4FFFED5
:100915007D807CBF900000E0F8A3E0F9A3E0FAA396
:10092500E0FB12054B1206F112087DEF3395E0FE50
:0D09350074042FF58274003EF583740BF0FE
:010942002292
:100C2A00E4F9900066F0FF120BB9120943900044F0
:100C3A00EFF0120003E4F9AF01E9FB3395E0FA742F
:100C4A00042BF58274003AF583E0FD7C0074592B7D
:100C5A00F58274003AF583E0FB3395E0FA120A153F
:100C6A0009E9B408D2900044E0FFC3940B40BBEFFB
:100C7A00D3941050B5E024F6FF900066F0120BB939
:020C8A0080A840
:1004530002075DE86480F8E933E83360110460F073
:10046300ED33EC337009E8FCE9FDEAFEEBFF22040F
:1004730060DED3EB9FEA9EE99DE8C2E78CF0C2F70A
:1004830095F0400CE8CCF8E9CDF9EACEFAEBCFFBD6
:1004930012072885D0F05804700320D5B3E8047000
:1004A300075002B2D502076792D5EC0460F7E4CC9B
:1004B300C0E0C398F8603B94186008400DD0E0FB9F
:1004C30002073FE4FBFAC9FC8028E830E406E4C9EC
:1004D300FBE4CAFCE830E305E4C9CACBFCE85407F3
:1004E3006010F8C3E913F9EA13FAEB13FBEC13FCFE
:1004F300D8F130F52FC3E49CFCEF9BFFEE9AFEEDA1
:1005030099FDD0E0FBEF4E4D4C701222DB03020746
:1005130064EC2CFCEF33FFEE33FEED33FDED30E7FF
:10052300EB02073FEF2BFFEE3AFEED39FDD0E0FB88
:1005330050130BBB0003020767ED13FDEE13FEEF31
:0805430013FFEC13FC02073F5B
:10054B00EC4D6011E8497017ED33EC3304600DE4AA
:10055B00FCFFFEFD22E933E8330470F802075D125D
:10056B00072858046009E4CC24815006285009025E
:10057B000767284003020764C0E0EB4A7044B98068
:10058B0006D0E0FB020753EF4E701CBD8008EBFF5B
:10059B00EAFEE9FD80EBE98DF0A4FEE5F0020634FE
:1005AB00E9CDF9EAFEEBFFEF89F0A4FCE5F0CE898B
:1005BB00F0A42EFFE435F0CD89F0A42DFEE435F048
:1005CB008067EF4E7005BD80D780C3EF8BF0A4AC76
:1005DB00F0EE8BF0A42CFCE435F0F8EF8AF0A42CB1
:1005EB00E5F038FCE433CB8DF0A42CFCE5F03BF8C4
:1005FB00EE8AF0A42CFCE5F038F8E433CF89F0A4B4
:10060B002CFCE5F038CF3400CE89F0A42FFFE5F0B9
:10061B003EFEE433C98DF0A42EFEE5F039CD8AF011
:10062B00A42FFFE5F03EFEE43DFD33D0E0FB500789
:10063B000BBB000F020767EC2CFCEF33FFEE33FE16
:06064B00ED33FD02073F44
:10065100020767EC5D046005E85904700302075D59
:10066100120728580460F6EC4860F2EC7004FDFEB5
:10067100FF22C860DB2481C85009C398600250067C
:100681000207649850CAF582E9294B4A7005AB828A
:1006910002075375F0007C1A7880C3EF9BEE9AED48
:1006A10099400DC3EF9BFFEE9AFEED99FDE842F0F4
:1006B100DC23ACF0D0E0FFD0E0FED0E0FDAB822047
:1006C100E7101BEB60BAEC2CFCEF33FFEE33FEEDD1
:1006D10033FD02073FE803F830E705C0F075F0008D
:1006E100EF2FFFEE33FEED33FD40B830E7C280AAB5
:1006F100EDD2E7CD33EC3392D524814006E4FFFE01
:10070100FDFC22FCE4CFCECDCC24E0501174FF805F
:10071100EDC3CC13CCCD13CDCE13CECF13CF0470FC
:07072100F030D5DE020813E1
:10072800E9D2E7C933E833F892D5EDD2E7CD33EC17
:0707380033FC5002B2D52290
:10073F00EC30E7100FBF000C0EBE00080DBD00041B
:10074F000BEB6014A2D5EB13FCED92E7FD2274FFC7
:10075F00FCFDFEFF22E480F8A2D574FF13FC7D8020
:03076F00E480EF34
:100AB200020C2AE493A3F8E493A34003F68001F224
:100AC20008DFF48029E493A3F85407240CC8C33345
:100AD200C4540F4420C8834004F456800146F6DF14
:100AE200E4800B0102040810204080900B32E47E67
:100AF200019360BCA3FF543F30E509541FFEE49309
:100B0200A360010ECF54C025E060A840B8E493A3CF
:100B1200FAE493A3F8E493A3C8C582C8CAC583CAFA
:100B2200F0A3C8C582C8CAC583CADFE9DEE780BEB2
:010BB800003C
:10077200BC000BBE0029EF8DF084FFADF022E4CC6B
:10078200F875F008EF2FFFEE33FEEC33FCEE9DEC34
:10079200984005FCEE9DFE0FD5F0E9E4CEFD22ED7A
:1007A200F8F5F0EE8420D21CFEADF075F008EF2FC4
:1007B200FFED33FD4007985006D5F0F222C398FDB5
:0507C2000FD5F0EA2252
:1007C700C2D5EC30E709B2D5E4C39DFDE49CFCEE4D
:1007D70030E715B2D5E4C39FFFE49EFE120772C34C
:1007E700E49DFDE49CFC800312077230D507C3E447
:0607F7009FFFE49EFE22BC
:1007FD00A3F8E0C5F025F0F0E582158270021583AF
:06080D00E0C838F0E8220B
:0E081300C3E49FFFE49EFEE49DFDE49CFC22F6
:0C082100ECF0A3EDF0A3EEF0A3EFF0224A
:10082D00A8828583F0D083D0821208441208441226
:10083D000844120844E473E493A3C583C5F0C5834B
:10084D00C8C582C8F0A3C583C5F0C583C8C582C815
:01085D002278
:00000001FF
